:020000040800F2
:1000000000500020CD040008F5020008F7020008A7
:10001000F9020008FB020008FD02000800000000D1
:10002000000000000000000000000000FF020008C7
:100030000103000800000000030300080503000896
:100040001505000815050008150500081505000828
:100050001505000815050008150500081505000818
:100060001505000815050008150500081505000808
:1000700015050008150500081505000815050008F8
:1000800015050008150500081505000815050008E8
:1000900015050008150500081505000815050008D8
:1000A00015050008150500081505000815050008C8
:1000B0000D030008150500081505000815050008C2
:1000C00015050008150500081505000815050008A8
:1000D0001505000815050008150500081505000898
:1000E00015050008150500081505000800000000AA
:1000F0000000000000000000000000000000000000
:0C01000000000000000000005FF808F1A3
:10010C0010B5054C237833B9044B13B10448AFF345
:10011C0000800123237010BD3C040020000000006F
:10012C00CC18000808B5034B1BB103490348AFF3C7
:10013C00008008BD0000000040040020CC1800081E
:10014C00F0B589B0002404940594069407941C4BD4
:10015C009A6942F010029A619A6902F010020192B7
:10016C00019A9A6942F020029A619A6902F020027F
:10017C000292029A9A6942F004029A619B6903F016
:10018C0004030393039B0F4F22464FF40051384650
:10019C0000F098FB4FF40053049301250595069449
:1001AC000226079604A9384600F07AFA04960594BC
:1001BC00069504A9044800F073FA09B0F0BD00BF1D
:1001CC0000100240001001400008014072B6FEE72A
:1001DC0000B591B02822002106A801F0AFFA002347
:1001EC0001930293039304930593012206924FF417
:1001FC00803307930A9202220D920E934FF4E01370
:10020C000F9306A800F07AFB80B90F23019302210B
:10021C000291002303934FF480620492059301A88A
:10022C0000F09EFD20B911B05DF804FBFFF7CEFF86
:10023C00FFF7CCFF08B500F08FF9FFF7C9FFFFF708
:10024C007FFF00F0FBF800F065F80021124801F088
:10025C00ABF9124800F0ECFE09E001339BB2104AF6
:10026C0013800D4A12685363022000F099F90C4B6D
:10027C001B88F92BF1D909E0013B9BB2084A13808A
:10028C00054A12685363022000F08AF9044B1B885C
:10029C00322BF1D8EBE700BFA40400205C04002053
:1002AC005804002082B00E4B9A6942F001029A6108
:1002BC009A6902F001020092009ADA6942F08052C7
:1002CC00DA61DB6903F080530193019B054A5368A3
:1002DC0023F0E06343F00073536002B0704700BF3B
:1002EC000010024000000140FEE7FEE7FEE7FEE7DB
:1002FC00FEE770477047704708B500F03FF908BD3E
:10030C0008B5024800F0CDFE08BD00BF5C0400201B
:10031C007047000000B587B0002302930393049349
:10032C0005930093019316484FF08042026041F60A
:10033C001F424260836041F28732C2600361836175
:10034C0000F0A0FF90B94FF48053029302A90C481F
:10035C0001F09CF868B900230093019369460848A2
:10036C0001F090F940B907B05DF804FBFFF72EFFE0
:10037C00E9E7FFF72BFFEEE7FFF728FFF3E700BFF6
:10038C005C0400200368B3F1804F00D0704700B5C7
:10039C0083B003F50433DA6942F00102DA61DB69F8
:1003AC0003F001030193019B002211461C2000F075
:1003BC001DF91C2000F052F903B05DF804FB00009D
:1003CC000268094B9A4200D0704782B003F50333A0
:1003DC00DA6942F00202DA61DB6903F0020301938D
:1003EC00019B02B0704700BF0004004000B587B00D
:1003FC000023029303930493059302680D4B9A42D6
:10040C0002D007B05DF804FB03F503339A6942F0A0
:10041C0004029A619B6903F004030193019B40233E
:10042C00029302230393059302A9034800F038F9C1
:10043C00E7E700BF000400400008014000B58BB0A6
:10044C000023089309930193029303930493059358
:10045C00069307931848194A026040F2CF22426073
:10046C00836040F2CF72C2600361836100F036FF9B
:10047C00C0B900230893099308A90F4801F002F9A9
:10048C0098B960230193002202920392059201A96C
:10049C00094800F081FF58B90748FFF7A7FF0BB0D8
:1004AC005DF804FBFFF792FEE3E7FFF78FFEE8E74A
:1004BC00FFF78CFEF0E700BFA4040020000400400E
:1004CC00FFF726FF0B480C490C4A002302E0D458D6
:1004DC00C4500433C4188C42F9D3094A094C002384
:1004EC0001E013600432A242FBD301F003F9FFF7E1
:1004FC00A1FE7047000000203C04002018190008E1
:10050C003C040020F4040020FEE7000010B5044673
:10051C000E4B18784FF47A73B3FBF0F30C4A106857
:10052C00B0FBF3F000F0A8F868B90F2C01D901204A
:10053C000AE0002221464FF0FF3000F057F8054B3F
:10054C001C60002000E0012010BD00BF0400002052
:10055C00000000200800002008B5074A136843F08B
:10056C0010031360032000F02FF80F20FFF7CEFFCD
:10057C00FFF798FE002008BD00200240034A1168D6
:10058C00034B1B780B441360704700BFEC04002036
:10059C0004000020014B1868704700BFEC040020D9
:1005AC0038B50446FFF7F6FF0546B4F1FF3F02D01D
:1005BC00044B1B781C44FFF7EDFF401BA042FAD301
:1005CC0038BD00BF04000020074AD36823F4E06361
:1005DC001B041B0C000200F4E060034343F0BF63F8
:1005EC0043F40033D360704700ED00E000B5194BC5
:1005FC00DB68C3F30223C3F1070CBCF1040F28BF63
:10060C004FF0040C03F1040EBEF1060F18D9033B96
:10061C004FF0FF3E0EFA0CFC21EA0C0199400EFA49
:10062C0003F322EA0303194300280BDB0901C9B2C7
:10063C0000F1604000F5614080F800135DF804FBA8
:10064C000023E5E700F00F000901C9B2024B195471
:10065C00F4E700BF00ED00E014ED00E0002807DB3C
:10066C0000F01F02400901239340024A42F8203057
:10067C00704700BF00E100E00138B0F1807F0BD281
:10068C004FF0E0235861054AF02182F82310002036
:10069C00986107221A6170470120704700ED00E055
:1006AC0070B582B00024A446A6E0804DAA4210D0BA
:1006BC0007D97F4DAA420CD005F58035AA4208D047
:1006CC0013E0A5F58015AA4203D005F57025AA42C2
:1006DC0007D18A68002A58D0012A51D043610824D6
:1006EC0003E0A5F58015AA42F3D0BEF1FF0F4ED85A
:1006FC000646BEF1FF0F4CD84FEA8C0233680F252B
:10070C00954023EA050304FA02F2134333604B6865
:10071C0013F0805F6ED0674B9A6942F001029A61C8
:10072C009B6903F001030193019B4FEA9C02951C0A
:10073C00614B53F825600CF003039D000F23AB4075
:10074C0026EA03065D4B984229D003F58063984254
:10075C0000F08E8003F58063984200F08B8003F5E7
:10076C008063984219D004231AE0CC68BDE7CC68AA
:10077C000434BAE7CC680834B7E7CC680C34B4E777
:10078C0003610824B1E70024AFE70424ADE7061D9C
:10079C00AFE7ACF108029200B0E7032300E00023BE
:1007AC00AB4033430232444D45F822304B6813F4CE
:1007BC00801F61D0424A936843EA0E0393604B68F2
:1007CC0013F4001F5ED03E4AD36843EA0E03D36095
:1007DC004B6813F4003F5BD0394A536843EA0E036D
:1007EC0053604B6813F4803F58D0354A136843EA82
:1007FC000E0313600CF1010C0A6832FA0CF353D09F
:10080C00012303FA0CF302EA030E33EA0202F1D1DC
:10081C004A68122A3FF649AF122A3FF666AF01A585
:10082C0055F822F0DF06000877070008810700085A
:10083C0093070008F7060008F7060008F7060008FB
:10084C00F7060008F7060008F7060008F706000888
:10085C00F7060008F7060008F7060008F706000878
:10086C00F7060008F70600087B0700088707000852
:10087C00012395E7022393E7114A936823EA0E03B9
:10088C0093609CE70E4AD36823EA0E03D3609FE77C
:10089C000B4A536823EA0E035360A2E7084A136815
:1008AC0023EA0E031360A5E702B070BD000022100E
:1008BC00000031100010024000000140000801400F
:1008CC00000401400AB101617047090401617047DD
:1008DC0082B0084B1B68084AA2FB03235B0A00FB8F
:1008EC0003F3019300BF019B5A1E0192002BF9D117
:1008FC0002B0704700000020D34D6210002800F0B9
:10090C00F18170B582B00446036813F0010F2CD04E
:10091C00994B5B6803F00C03042B1DD0964B5B6862
:10092C0003F00C03082B12D06368B3F5803F41D061
:10093C00002B55D103F1804303F504331A6822F4DC
:10094C0080321A601A6822F480221A6037E08A4BCF
:10095C005B6813F4803FE7D0874B1B6813F4003FB0
:10096C0003D06368002B00F0BF81236813F0020FE3
:10097C0075D0814B5B6813F00C0F5FD07E4B5B68BE
:10098C0003F00C03082B54D02369002B00F08A8051
:10099C007A4B01221A60FFF7FDFD0546764B1B686A
:1009AC0013F0020F75D1FFF7F5FD401B0228F5D9A6
:1009BC0003209EE1704A136843F48033136063682C
:1009CC0043B3FFF7E7FD05466B4B1B6813F4003F81
:1009DC00CBD1FFF7DFFD401B6428F5D9032088E15C
:1009EC00B3F5A02F09D0644B1A6822F480321A6038
:1009FC001A6822F480221A60E1E703F18043A3F520
:100A0C003C331A6842F480221A601A6842F480322D
:100A1C001A60D4E7FFF7BEFD0546574B1B6813F46D
:100A2C00003FA2D0FFF7B6FD401B6428F5D9032088
:100A3C005FE1514B5B6813F4803FA5D14E4B1B68B3
:100A4C0013F0020F03D02369012B40F04F814A4A67
:100A5C00136823F0F803616943EAC1031360236848
:100A6C0013F0080F33D0A369002B5CD0434B012249
:100A7C00C3F88024FFF78EFD05463F4B5B6A13F0ED
:100A8C00020F21D1FFF786FD401B0228F5D9032068
:100A9C002FE1394A136823F0F803616943EAC10373
:100AAC001360DCE7354B00221A60FFF773FD054637
:100ABC00314B1B6813F0020FD1D0FFF76BFD401BBD
:100ACC000228F5D9032014E10120FFF701FF236868
:100ADC0013F0040F00F09680274BDB6913F0805F56
:100AEC0034D1254BDA6942F08052DA61DB6903F0CC
:100AFC0080530193019B0125214B1B6813F4807FCC
:100B0C0026D0E368012B3DD0002B53D103F1804359
:100B1C0003F504331A6A22F001021A621A6A22F0EF
:100B2C0004021A6233E0154B0022C3F88024FFF74D
:100B3C0031FD0546104B5B6A13F0020FC7D0FFF76F
:100B4C0029FD401B0228F5D90320D2E00025D3E76C
:100B5C000B4A136843F480731360FFF71BFD0646C2
:100B6C00074B1B6813F4807FCBD1FFF713FD801B61
:100B7C006428F5D90320BCE000100240000042427A
:100B8C00007000405F4A136A43F001031362E3688C
:100B9C0033B3FFF7FFFC06465A4B1B6A13F0020FE8
:100BAC002FD1FFF7F7FC801B41F288339842F3D921
:100BBC0003209EE0052B09D0524B1A6A22F0010249
:100BCC001A621A6A22F004021A62E0E74D4B1A6AA2
:100BDC0042F004021A621A6A42F001021A62D6E763
:100BEC00FFF7D8FC0646474B1B6A13F0020F08D0E0
:100BFC00FFF7D0FC801B41F288339842F3D90320D5
:100C0C0077E0E5B9E369002B72D03E4A526802F0F6
:100C1C000C02082A56D0022B17D03B4B00221A6626
:100C2C00FFF7B8FC0446374B1B6813F0007F47D026
:100C3C00FFF7B0FC001B0228F5D9032059E0314A1C
:100C4C00D36923F08053D361DCE72F4B00221A6663
:100C5C00FFF7A0FC05462B4B1B6813F0007F06D05A
:100C6C00FFF798FC401B0228F5D9032041E0236ACA
:100C7C00B3F5803F1AD023494B6823F47413226ACE
:100C8C00606A024313434B601F4B01221A66FFF745
:100C9C0081FC04461B4B1B6813F0007F0ED1FFF741
:100CAC0079FC001B0228F5D9032022E0154A536871
:100CBC0023F40033A1680B435360DCE7002018E0F9
:100CCC00002016E0012B16D00E4B5B6803F480312C
:100CDC00226A914211D103F47013626A93420ED1CD
:100CEC00002006E001207047012002E0012000E016
:100CFC00002002B070BD0120FBE70120F9E70120C4
:100D0C00F7E700BF00100240000042420F4B5B6847
:100D1C0003F00C02082A01D00D487047C3F383423C
:100D2C000C49885C13F4803F0BD0084B5B68C3F311
:100D3C004043094AD35C064A02FB00F0B0FBF3F0D7
:100D4C007047064B03FB00F0704700BF00100240D9
:100D5C0000127A00F41800080419000800093D007C
:100D6C00002800F0A08070B50D460446524B1B685D
:100D7C0003F007038B420BD24F4A136823F007038F
:100D8C000B431360136803F007038B4240F08D8014
:100D9C00236813F0020F17D013F0040F04D0474A46
:100DAC00536843F4E0635360236813F0080F04D0D6
:100DBC00424A536843F460535360404A536823F0EB
:100DCC00F003A1680B435360236813F0010F31D07B
:100DDC006368012B20D0022B25D0384A126812F000
:100DEC00020F64D035494A6822F0030213434B606A
:100DFC00FFF7D0FB0646314B5B6803F00C036268CF
:100E0C00B3EB820F16D0FFF7C5FB801B41F2883382
:100E1C009842F0D9032045E0284A126812F4003FAA
:100E2C00E0D101203EE0254A126812F0007FD9D1B2
:100E3C00012037E0204B1B6803F00703AB420AD9B3
:100E4C001D4A136823F007032B431360136803F048
:100E5C000703AB422DD1236813F0040F06D0174AB9
:100E6C00536823F4E063E1680B435360236813F089
:100E7C00080F07D0114A536823F46053216943EAE1
:100E8C00C1035360FFF742FF0C4B5B68C3F30313C2
:100E9C000B4AD35CD8400B4B18600B4B1868FFF710
:100EAC0035FB002070BD012070470120FAE70120BE
:100EBC00F8E70120F6E700BF0020024000100240D6
:100ECC00E4180008000000200800002070B4036A39
:100EDC00026A22F0010202624668826922F0730201
:100EEC000C6844EA020523F002028B6813430D4C94
:100EFC00A04209D00B4CA0420DD0466085614A68D7
:100F0C004263036270BC704723F00803CA68134342
:100F1C0023F00403EEE726F440764A6932438E69E7
:100F2C001643EAE7002C014030B4036A026A22F44B
:100F3C00807202624568C26922F073020C68224317
:100F4C0023F400738C6843EA04230F4CA04209D0AD
:100F5C000D4CA0420ED04560C2614A68C263036268
:100F6C0030BC704723F40063CC6843EA042323F4B9
:100F7C008063EDE725F440554C6945EA04158C690E
:100F8C0045EA0415E7E700BF002C014030B4036AC2
:100F9C00026A22F4805202624468C26922F4E64278
:100FAC000D6842EA052223F400538D6843EA0533A9
:100FBC00074DA84206D04460C2614A6802640362CD
:100FCC0030BC704724F480444D6944EA8514F2E740
:100FDC00002C014010B4036A046A24F0010404627A
:100FEC00846924F0F00C4CEA021223F00A030B4340
:100FFC008261036210BC704710B4036A046A24F067
:10100C0010040462846924F4704C4CEA023223F01C
:10101C00A00343EA01138261036210BC704783682A
:10102C0023F070030B4343F0070383607047000009
:10103C0090F83D30DBB2012B27D1022380F83D30F4
:10104C000268D36843F00103D3600368114A9342EA
:10105C0010D0B3F1804F0DD0A2F59432934209D049
:10106C0002F58062934205D01A6842F001021A60C0
:10107C00002070479A6802F00702062A07D01A6807
:10108C0042F001021A6000207047012070470020D6
:10109C00704700BF002C0140704770477047704785
:1010AC00704770B504460368DE681D6915F0020FC1
:1010BC0010D016F0020F0DD06FF002021A6101234E
:1010CC00037703689B6913F0030F5ED0FFF7E6FF0D
:1010DC000023237715F0040F12D016F0040F0FD055
:1010EC0023686FF004021A610223237723689B693B
:1010FC0013F4407F4FD02046FFF7D0FF0023237717
:10110C0015F0080F12D016F0080F0FD023686FF0EF
:10111C0008021A61042323772368DB6913F0030F99
:10112C0040D02046FFF7BAFF0023237715F0100FAD
:10113C0012D016F0100F0FD023686FF010021A6146
:10114C00082323772368DB6913F4407F31D02046D2
:10115C00FFF7A4FF0023237715F0010F02D016F040
:10116C00010F2DD115F0800F02D016F0800F2FD16A
:10117C0015F0400F02D016F0400F31D115F0200FB2
:10118C0002D016F0200F33D170BDFFF786FF20463A
:10119C00FFF785FF9CE72046FFF77FFF2046FFF710
:1011AC007EFFABE72046FFF778FF2046FFF777FF7F
:1011BC00BAE72046FFF771FF2046FFF770FFC9E73B
:1011CC0023686FF001021A612046FFF765FFC9E73B
:1011DC0023686FF080021A61204600F08AFAC7E794
:1011EC0023686FF040021A612046FFF759FFC5E7EC
:1011FC0023686FF020021A61204600F079FAC3E7E9
:10120C0003681F4A90420AD0B0F1804F07D0A2F574
:10121C009432904203D002F58062904203D123F0C5
:10122C0070034A681343164A90420AD0B0F1804FBB
:10123C0007D0A2F59432904203D002F5806290421E
:10124C0003D123F44073CA68134323F080034A6923
:10125C00134303608B68C3620B688362084B98422C
:10126C000AD001234361036913F0010F03D0036912
:10127C0023F00103036170470B690363F1E700BFBF
:10128C00002C014040B310B5044690F83D30F3B14A
:10129C00022384F83D30214651F8040BFFF7B0FFD0
:1012AC00012384F8463084F83E3084F83F3084F8CB
:1012BC00403084F8413084F8423084F8433084F86C
:1012CC00443084F8453084F83D30002010BD80F85F
:1012DC003C30FFF757F8DBE70120704740B310B5FF
:1012EC00044690F83D30F3B1022384F83D3021469A
:1012FC0051F8040BFFF784FF012384F8463084F87F
:10130C003E3084F83F3084F8403084F8413084F823
:10131C00423084F8433084F8443084F8453084F803
:10132C003D30002010BD80F83C30FFF749F8DBE77A
:10133C000120704730B4036A026A22F01002026284
:10134C004468826922F4E6420D6842EA052223F0E1
:10135C0020038D6843EA05130E4DA84209D00D4DAC
:10136C00A8420ED0446082614A688263036230BC3A
:10137C00704723F08003CD6843EA051323F0400344
:10138C00EDE724F440644D6944EA85048D6944EA30
:10139C008504E7E7002C014038B590F83C30012B70
:1013AC0066D004460D46012380F83C300C2A5AD8EE
:1013BC00DFE802F0075959591B59595930595959F5
:1013CC0044000068FFF782FD2268936943F008032C
:1013DC0093612268936923F00403936122689369F3
:1013EC0029690B43936100203EE00068FFF7A2FFE0
:1013FC002268936943F4006393612268936923F430
:10140C008063936122689369296943EA012393619C
:10141C00002029E00068FFF787FD2268D36943F0BC
:10142C000803D3612268D36923F00403D3612268D3
:10143C00D36929690B43D361002015E00068FFF7DD
:10144C00A5FD2268D36943F40063D3612268D36994
:10145C0023F48063D3612268D369296943EA0123A9
:10146C00D361002000E00120002384F83C3038BD1B
:10147C000220FCE710B4846824F47F4C42EA032277
:10148C000A4342EA0C02826010BC704790F83C3070
:10149C00012B78D010B50446012380F83C30022390
:1014AC0080F83D300268936823F47F4323F0770380
:1014BC0093600B68602B4CD029D8402B54D00CD99E
:1014CC00502B22D1CA6849680068FFF783FD502170
:1014DC002068FFF7A4FD002005E0202B0DD009D9D2
:1014EC00302B0AD00120012384F83D30002384F8EE
:1014FC003C3010BD0BB1102B05D119462068FFF7FD
:10150C008EFD0020EFE70120EDE70120EBE7B3F5BE
:10151C00805F34D0B3F5005F0CD1CB684A68896822
:10152C000068FFF7A7FF2268936843F48043936039
:10153C000020D8E7702B24D1CB684A6889680068F2
:10154C00FFF798FF2268936843F0770393600020BD
:10155C00C9E7CA6849680068FFF74EFD602120683A
:10156C00FFF75DFD0020BEE7CA6849680068FFF719
:10157C0031FD40212068FFF752FD0020B3E7002029
:10158C00B1E70120AFE70220704701F01F010123F2
:10159C0003FA01FC036A23EA0C030362036A02FAEE
:1015AC0001F10B430362704710B50446084651BB6A
:1015BC0094F83E30DBB2013B18BF0123002B5BD10A
:1015CC00002839D1022384F83E30012201462068DC
:1015DC00FFF7DBFF23682A4A93423DD02368284A51
:1015EC0093423ED0B3F1804F3BD0A2F5943293425C
:1015FC0037D002F58062934233D01A6842F0010270
:10160C001A60002039E0042908D008290DD094F87C
:10161C004130DBB2013B18BF0123CFE794F83F30D8
:10162C00DBB2013B18BF0123C8E794F84030DBB2B2
:10163C00013B18BF0123C1E7042805D0082807D0B7
:10164C00022384F84130C0E7022384F83F30BCE722
:10165C00022384F84030B8E75A6C42F400425A64D2
:10166C00BCE79A6802F00702062A07D01A6842F013
:10167C0001021A60002000E0012010BD0020FCE7F0
:10168C00002C014090F83C30012B2CD010B40123DD
:10169C0080F83C30022380F83D3003685A689C681F
:1016AC0022F0700C0A6842EA0C025A6003680F4A76
:1016BC0093420AD0B3F1804F07D0A2F594329342F3
:1016CC0003D002F58062934204D124F080044A686E
:1016DC0014439C60012380F83D30002380F83C309B
:1016EC00184610BC70470220704700BF002C014008
:1016FC007047704770B50D4E0D4D761BB61006D069
:10170C00002455F8043B01349847A642F9D1094E00
:10171C00094D00F0D5F8761BB61006D0002455F80C
:10172C00043B01349847A642F9D170BD0C1900084E
:10173C000C190008141900080C190008830730B59F
:10174C0048D0541E002A3FD00346CAB201E0013CE7
:10175C003AD303F8012B9D07F9D1032C2DD9CDB227
:10176C0045EA05250F2C45EA054536D9A4F11002AA
:10177C0022F00F0C03F1200EE6444FEA121C03F189
:10178C00100242E9045542E9025510327245F8D173
:10179C000CF1010214F00C0F03EB021204F00F0C0D
:1017AC0013D0ACF1040323F003030433134442F8C5
:1017BC00045B9342FBD10CF003042CB1CAB21C4461
:1017CC0003F8012B9C42FBD130BD64461346002C20
:1017DC00F4D1F9E703461446BFE71A46A446E0E7FE
:1017EC00024B13B1024800F005B87047000000002E
:1017FC000D180008002301461A46184600F01AB8C6
:10180C0038B5084B084D5B1B9C1007D0043B1D449E
:10181C00013C55F804399847002CF9D1BDE8384003
:10182C0000F054B81819000814190008704700BFCC
:10183C00704700BF2DE9F047DFF87CA00646DAF8C8
:10184C00000098460F469146FFF7F0FF1B4B1B68B4
:10185C00D3F8484124B365681F2D26DC5EB96B1C98
:10186C000235DAF80000636044F82570FFF7E0FFFA
:10187C000020BDE8F087012304EB8501C1F88890B6
:10188C00D4F88821AB401A43022EC4F88821C1F841
:10189C000881E4D1D4F88C211343C4F88C31DEE7F1
:1018AC0003F5A674C3F84841D5E7DAF80000FFF752
:1018BC00BFFF4FF0FF30DCE73804002008190008A8
:1018CC00F8B500BFF8BC08BC9E467047F8B500BF21
:0818DC00F8BC08BC9E467047F1
:1018E40000000000000000000102030406070809CC
:1018F40002030405060708090A0B0C0D0E0F10104D
:081904000102000010000020A8
:08190C00ED170008310100088D
:041914000D010008B9
:1019180000127A0001000000100000000000000022
:1019280000000000FC02002064030020CC0300201B
:10193800000000000000000000000000000000009F
:10194800000000000000000000000000000000008F
:10195800000000000000000000000000000000007F
:10196800000000000000000000000000000000006F
:10197800000000000000000000000000000000005F
:10198800000000000000000000000000000000004F
:10199800000000000000000000000000000000003F
:1019A800000000000000000000000000000000002F
:1019B800000000000000000000000000000000001F
:1019C800000000000000000001000000000000000E
:1019D8000E33CDAB34126DE6ECDE05000B000000D3
:1019E80000000000000000000000000000000000EF
:1019F80000000000000000000000000000000000DF
:101A080000000000000000000000000000000000CE
:101A180000000000000000000000000000000000BE
:0C1D48000000000000000000F00400207B
:04000005080004CD1E
:00000001FF
