:020000040800F2
:10000000005000204D0F0008750D0008770D000806
:10001000790D00087B0D00087D0D00080000000030
:100020000000000000000000000000007F0D00083C
:10003000810D000800000000830D0008850D0008F8
:10004000950F0008950F0008950F0008950F000800
:10005000950F0008950F0008950F0008950F0008F0
:10006000950F0008950F0008950F0008950F0008E0
:10007000950F0008950F0008950F0008950F0008D0
:10008000950F0008950F0008950F0008950F0008C0
:10009000950F0008950F0008950F0008950F0008B0
:1000A000950F0008950F0008950F0008950F0008A0
:1000B0008D0D0008950F0008950F0008950F00089A
:1000C000950F0008950F0008950F0008950F000880
:1000D000950F0008950F0008950F0008950F000870
:1000E000950F0008950F0008950F0008000000000C
:1000F0000000000000000000000000000000000000
:0C01000000000000000000005FF808F1A3
:1001100010B5054C237833B9044B13B10448AFF341
:1001200000800123237010BD3C040020000000006B
:10013000082B000808B5034B1BB103490348AFF374
:10014000008008BD0000000040040020082B0008CB
:1001500081F0004102E000BF83F0004330B54FEA78
:1001600041044FEA430594EA050F08BF90EA020FE5
:100170001FBF54EA000C55EA020C7FEA645C7FEA78
:10018000655C00F0E2804FEA5454D4EB5555B8BF9B
:100190006D420CDD2C4480EA020281EA030382EA0C
:1001A000000083EA010180EA020281EA0303362D9E
:1001B00088BF30BD11F0004F4FEA01314FF4801C71
:1001C0004CEA113102D0404261EB410113F0004F83
:1001D0004FEA03334CEA133302D0524263EB43033A
:1001E00094EA050F00F0A780A4F10104D5F1200ED8
:1001F0000DDB02FA0EFC22FA05F2801841F1000133
:1002000003FA0EF2801843FA05F359410EE0A5F106
:1002100020050EF1200E012A03FA0EFC28BF4CF037
:10022000020C43FA05F3C01851EBE37101F00045ED
:1002300007D54FF0000EDCF1000C7EEB00006EEBFA
:100240000101B1F5801F1BD3B1F5001F0CD3490884
:100250005FEA30004FEA3C0C04F101044FEA4452DB
:1002600012F5800F80F09A80BCF1004F08BF5FEA62
:10027000500C50F1000041EB045141EA050130BD42
:100280005FEA4C0C404141EB0101013C28BFB1F554
:10029000801FE9D291F0000F04BF01460020B1FA9F
:1002A00081F308BF2033A3F10B03B3F120020CDA72
:1002B0000C3208DD02F1140CC2F10C0201FA0CF050
:1002C00021FA02F10CE002F11402D8BFC2F1200CB5
:1002D00001FA02F120FA0CFCDCBF41EA0C0190406B
:1002E000E41AA2BF01EB0451294330BD6FEA0404B4
:1002F0001F3C1CDA0C340EDC04F11404C4F120029F
:1003000020FA04F001FA02F340EA030021FA04F3B0
:1003100045EA030130BDC4F10C04C4F1200220FA07
:1003200002F001FA04F340EA0300294630BD21FA45
:1003300004F0294630BD94F0000F83F4801306BF0B
:1003400081F480110134013D4EE77FEA645C18BFFF
:100350007FEA655C29D094EA050F08BF90EA020F96
:1003600005D054EA000C04BF1946104630BD91EA8E
:10037000030F1EBF0021002030BD5FEA545C05D191
:100380004000494128BF41F0004130BD14F58004D0
:100390003CBF01F5801130BD01F0004545F0FE4144
:1003A00041F470014FF0000030BD7FEA645C1ABF79
:1003B000194610467FEA655C1CBF0B46024650EAB0
:1003C000013406BF52EA033591EA030F41F40021DC
:1003D00030BD00BF90F0000F04BF0021704730B562
:1003E0004FF4806404F132044FF000054FF0000137
:1003F00050E700BF90F0000F04BF0021704730B5F8
:100400004FF4806404F1320410F0004548BF4042CC
:100410004FF000013EE700BF42004FEAE2014FEA21
:1004200031014FEA02701FBF12F07F4393F07F4FFC
:1004300081F06051704732F07F4208BF704793F0FF
:100440007F4F04BF41F40021704730B54FF4607412
:1004500001F0004521F000411CE700BF50EA010215
:1004600008BF704730B54FF000050AE050EA0102BE
:1004700008BF704730B511F0004502D5404261EB2E
:1004800041014FF4806404F132045FEA915C3FF46F
:10049000D8AE4FF003025FEADC0C18BF03325FEA0C
:1004A000DC0C18BF033202EBDC02C2F1200300FABD
:1004B00003FC20FA02F001FA03FE40EA0E0021FAE2
:1004C00002F11444BDE600BF4FF0FF3C06E000BF60
:1004D0004FF0010C02E000BF4FF0010C4DF804CDCD
:1004E0004FEA410C7FEA6C5C4FEA430C18BF7FEA8D
:1004F0006C5C1BD001B050EA410C0CBF52EA430CBB
:1005000091EA030F02BF90EA020F0020704710F13A
:10051000000F91EA030F58BF994208BF90422CBFC9
:10052000D8176FEAE37040F0010070474FEA410CC2
:100530007FEA6C5C02D150EA013C07D14FEA430CE0
:100540007FEA6C5CD6D152EA033CD3D05DF8040B51
:10055000704700BF8446104662468C461946634683
:1005600000E000BF01B5FFF7B7FF002848BF10F15A
:10057000000F01BD4DF808EDFFF7F4FF0CBF01209F
:1005800000205DF808FB00BF4DF808EDFFF7EAFF1B
:1005900034BF012000205DF808FB00BF4DF808EDD6
:1005A000FFF7E0FF94BF012000205DF808FB00BFCB
:1005B0004DF808EDFFF7CEFF94BF012000205DF855
:1005C00008FB00BF4DF808EDFFF7C4FF34BF012062
:1005D00000205DF808FB00BF80F0004002E000BF93
:1005E00081F0004142001FBF5FEA410392EA030F1E
:1005F0007FEA226C7FEA236C6AD04FEA1262D2EB68
:100600001363C1BFD218414048404140B8BF5B426C
:10061000192B88BF704710F0004F40F4000020F005
:100620007F4018BF404211F0004F41F4000121F01B
:100630007F4118BF494292EA030F3FD0A2F1010265
:1006400041FA03FC10EB0C00C3F1200301FA03F1A3
:1006500000F0004302D5494260EB4000B0F5000FC6
:1006600013D3B0F1807F06D340084FEA310102F185
:100670000102FE2A51D2B1F1004F40EBC25008BF37
:1006800020F0010040EA03007047490040EB000001
:10069000013A28BFB0F5000FEDD2B0FA80FCACF102
:1006A000080CB2EB0C0200FA0CF0AABF00EBC2502F
:1006B00052421843BCBFD0401843704792F0000F1D
:1006C00081F4000106BF80F400000132013BB5E770
:1006D0004FEA41037FEA226C18BF7FEA236C21D0E6
:1006E00092EA030F04D092F0000F08BF084670474B
:1006F00090EA010F1CBF0020704712F07F4F04D119
:10070000400028BF40F00040704712F100723CBF2B
:1007100000F50000704700F0004343F0FE4040F455
:10072000000070477FEA226216BF08467FEA236313
:100730000146420206BF5FEA412390EA010F40F4FE
:10074000800070474FF0000304E000BF10F000434A
:1007500048BF40425FEA000C08BF704743F0964331
:1007600001464FF000001CE050EA010208BF70474C
:100770004FF000030AE000BF50EA010208BF7047D3
:1007800011F0004302D5404261EB41015FEA010CE8
:1007900002BF84460146002043F0B64308BFA3F1E0
:1007A0008053A3F50003BCFA8CF2083AA3EBC253C2
:1007B00010DB01FA02FC634400FA02FCC2F12002E1
:1007C000BCF1004F20FA02F243EB020008BF20F018
:1007D0000100704702F1200201FA02FCC2F120027E
:1007E00050EA4C0021FA02F243EB020008BF20EA73
:1007F000DC7070474FF0FF0C1CEAD0521EBF1CEAA1
:10080000D15392EA0C0F93EA0C0F6FD01A4480EA8E
:10081000010C400218BF5FEA41211ED04FF0006377
:1008200043EA501043EA5111A0FB01310CF00040A3
:10083000B1F5000F3EBF490041EAD3715B0040EAC9
:10084000010062F17F02FD2A1DD8B3F1004F40EB99
:10085000C25008BF20F00100704790F0000F0CF06C
:10086000004C08BF49024CEA502040EA51207F3A30
:10087000C2BFD2F1FF0340EAC250704740F400000B
:100880004FF00003013A5DDC12F1190FDCBF00F0FC
:1008900000407047C2F10002410021FA02F1C2F1AA
:1008A000200200FA02FC5FEA310040F1000053EA46
:1008B0004C0308BF20EADC70704792F0000F00F094
:1008C000004C02BF400010F4000F013AF9D040EA9A
:1008D0000C0093F0000F01F0004C02BF490011F42E
:1008E000000F013BF9D041EA0C018FE70CEAD1532C
:1008F00092EA0C0F18BF93EA0C0F0AD030F0004CAC
:1009000018BF31F0004CD8D180EA010000F000405F
:10091000704790F0000F17BF90F0004F084691F01D
:10092000000F91F0004F14D092EA0C0F01D1420257
:100930000FD193EA0C0F03D14B0218BF084608D120
:1009400080EA010000F0004040F0FE4040F400006A
:10095000704740F0FE4040F4400070474FF0FF0CFD
:100960001CEAD0521EBF1CEAD15392EA0C0F93EA44
:100970000C0F69D0A2EB030280EA010C49024FEA96
:10098000402037D04FF0805343EA111143EA10134F
:100990000CF000408B4238BF5B0042F17D024FF407
:1009A000000C8B4224BF5B1A40EA0C00B3EB510FE2
:1009B00024BFA3EB510340EA5C00B3EB910F24BFCB
:1009C000A3EB910340EA9C00B3EBD10F24BFA3EB50
:1009D000D10340EADC001B0118BF5FEA1C1CE0D118
:1009E000FD2A3FF650AF8B4240EBC25008BF20F0CB
:1009F000010070470CF0004C4CEA50207F32C2BF1F
:100A0000D2F1FF0340EAC250704740F400004FF0BB
:100A10000003013A37E792F0000F00F0004C02BFEC
:100A2000400010F4000F013AF9D040EA0C0093F0B6
:100A3000000F01F0004C02BF490011F4000F013B10
:100A4000F9D041EA0C0195E70CEAD15392EA0C0F78
:100A500008D142027FF47DAF93EA0C0F7FF470AFB0
:100A6000084676E793EA0C0F04D14B023FF44CAFF3
:100A700008466EE730F0004C18BF31F0004CCAD188
:100A800030F000427FF45CAF31F000437FF43CAFC4
:100A90005FE700BF00B585B0002301930293039385
:100AA0001048114A02608360037303754FF460229B
:100AB000C26143600123036100F004FD60B90123BA
:100AC000019302930023039301A9064800F074FBED
:100AD00028B905B05DF804FB00F0A6F8EFE700F0D8
:100AE000A3F8F6E7580400200024014000B587B0C1
:100AF000002302930393049305930268114B9A42D7
:100B000002D007B05DF804FB03F56C439A6942F428
:100B100000729A619A6902F400720092009A9A69CE
:100B200042F004029A619B6903F004030193019B64
:100B3000022302930323039302A9034800F0CCFD90
:100B4000DFE700BF002401400008014082B00A4BEB
:100B50009A6942F020029A619A6902F0200200929A
:100B6000009A9A6942F004029A619B6903F00403B7
:100B70000193019B02B0704700100240044B1B68B8
:100B80003C225A63034A136801331360704700BF65
:100B9000DC0400208C040020024B1B6844225A63B2
:100BA000704700BFDC04002038B50368B3F1804F04
:100BB00000D038BD1A4B1B68012B09DD194B186892
:100BC000FFF72AFC14A3D3E90023FFF7F1FCD0B907
:100BD000144B1868FFF720FC04460D460EA3D3E91A
:100BE0000023FFF7E5FC88B90BA3D3E900232046D7
:100BF0002946FFF7C9FC0028DBD0FFF7CDFF084BE3
:100C000000221A60D5E7FFF7C7FFD2E7FFF7B6FF6C
:100C1000CFE700BFAFF30080333333333333E33FE9
:100C20008C0400209004002072B6FEE700B595B059
:100C3000282200210DEB020001F0A4FE0023059301
:100C400006930793089309930193029303930493E4
:100C500001220A924FF480330B930E9202221192DA
:100C600012934FF4E01313930AA800F05DFEC8B985
:100C70000F23059302210691002307934FF480620E
:100C80000892099305A801F081F868B9022301933D
:100C90004FF40043039301A801F044F930B915B0B3
:100CA0005DF804FBFFF7C0FFFFF7BEFFFFF7BCFFD7
:100CB00008B500F097F9FFF7B9FFFFF747FF00F01D
:100CC00003F900F06DF8FFF7E5FE0021114801F08F
:100CD0008FFD114801F0D0FA104C204600F052FB75
:100CE0004FF0FF31204600F0A1F9204600F060FAF5
:100CF0000B4D2880204600F069FC2888FFF722FD74
:100D00000849FFF72BFE0849FFF774FD074B1860F1
:100D1000E2E700BFDC040020940400205804002017
:100D20008804002000F07F453333534090040020B6
:100D300082B00E4B9A6942F001029A619A6902F000
:100D400001020092009ADA6942F08052DA61DB69AE
:100D500003F080530193019B054A536823F0E0633D
:100D600043F00073536002B0704700BF00100240B0
:100D700000000140FEE7FEE7FEE7FEE7FEE7704702
:100D80007047704708B500F03FF908BD08B5024844
:100D900001F0AAFA08BD00BF9404002070470000CB
:100DA00000B587B000230293039304930593009347
:100DB000019316484FF08042026040F2CF22426019
:100DC000836040F2CF72C2600361836101F07EFBF9
:100DD00090B94FF48053029302A90C4801F07AFCB9
:100DE00068B90023009301936946084801F06EFD3D
:100DF00040B907B05DF804FBFFF716FFE9E7FFF71E
:100E000013FFEEE7FFF710FFF3E700BF94040020A5
:100E10000368B3F1804F00D0704700B583B003F58D
:100E20000433DA6942F00102DA61DB6903F001039D
:100E30000193019B002211461C2000F0F3FB1C20B3
:100E400000F028FC03B05DF804FB00000268094BC9
:100E50009A4200D0704782B003F50333DA6942F05A
:100E60000202DA61DB6903F002030193019B02B025
:100E7000704700BF0004004000B587B00023029314
:100E800003930493059302680D4B9A4202D007B076
:100E90005DF804FB03F503339A6942F004029A619A
:100EA0009B6903F004030193019B402302930223F7
:100EB0000393059302A9034800F00EFCE7E700BF87
:100EC000000400400008014000B58BB000230893E7
:100ED0000993019302930393049305930693079355
:100EE0001848194A026040F2CF224260836040F203
:100EF000CF72C2600361836101F014FBC0B90023AB
:100F00000893099308A90F4801F0E0FC98B9602301
:100F10000193002202920392059201A9094801F06F
:100F20005FFB58B90748FFF7A7FF0BB05DF804FB5C
:100F3000FFF77AFEE3E7FFF777FEE8E7FFF774FED7
:100F4000F0E700BFDC04002000040040FFF726FFAC
:100F50000B480C490C4A002302E0D458C450043317
:100F6000C4188C42F9D3094A094C002301E01360EC
:100F70000432A242FBD301F0E1FCFFF799FE704777
:100F8000000000203C040020702B00083C040020DE
:100F90002C050020FEE7000010B504460E4B187823
:100FA0004FF47A73B3FBF0F30C4A1068B0FBF3F024
:100FB00000F07EFB68B90F2C01D901200AE0002265
:100FC00021464FF0FF3000F02DFB054B1C60002048
:100FD00000E0012010BD00BF040000200000002040
:100FE0000800002008B5074A136843F01003136097
:100FF000032000F005FB0F20FFF7CEFFFFF798FE60
:10100000002008BD00200240034A1168034B1B78F2
:101010000B441360704700BF24050020040000202B
:10102000014B1868704700BF24050020F0B583B05D
:1010300005460C4600230193FFF7F2FF2B689A68E0
:1010400012F4807F23D107465A6812F4807F03D1BF
:10105000DB6A13F4700F29D0504B1E68022000F099
:10106000EDFFB6FBF0F62B6819694D4A114236D1F7
:10107000D96802F15C42114231D11969494A1142E1
:1010800040D1DA68484B1A423ED0292041E0AB6A91
:1010900043F02003AB62002385F82430012003B025
:1010A000F0BD2B681B6813F0020F0FD02B681B6874
:1010B00013F0020F4FD1B4F1FF3FF7D0002CF0D066
:1010C000FFF7AEFFC31BA342F0D9EAE7AB6A43F0D8
:1010D0000403AB62002385F824300320DFE719699D
:1010E000304A114204D1D96802F16E4211420DD04A
:1010F00019692E4A0A405AB9DA682C4B13405BB181
:10110000FC2006E0292004E0142002E0542000E046
:10111000FC2000FB06F607E05420FAE7019BB342EF
:1011200010D3019B01330193019BB34213D2B4F15D
:10113000FF3FF6D0002CF1D0FFF772FFC01BA0429A
:10114000EFD9EBE7AB6A43F00403AB62002385F809
:1011500024300320A3E72B686FF012021A60AB6AF9
:1011600043F40073AB622B689B6803F46023B3F510
:10117000602F01D0002092E7287B60B9AB6A23F48E
:101180008073AB62AB6A13F4805F88D1AB6A43F0C3
:101190000103AB6283E7002081E700BF000000206D
:1011A000244992249224491292244900499224000D
:1011B0000368D86C7047000030B482B000220192FE
:1011C00090F82420012A00F091800346012280F843
:1011D00024204A68062A2DD80468606B02EB82023C
:1011E000053A4FF01F0C0CFA02FC20EA0C000D68C7
:1011F00005FA02F2024362630A68092A3AD91C68B6
:10120000E06802EB42021E3A4FF0070C0CFA02FCB7
:1012100020EA0C008D6805FA02F20243E2600A68D7
:10122000103A012A36D90020002283F8242002B087
:1012300030BC70470C2A0ED80568286B02EB82027E
:10124000233A1F24944020EA04000C6804FA02F2B6
:1012500002432A63D0E70568E86A02EB8202413A5A
:101260001F24944020EA04000C6804FA02F20243AE
:10127000EA62C1E71C68206902EB42024FF0070CEA
:101280000CFA02FC20EA0C008D6805FA02F2024317
:101290002261C4E71A681648824205D09A6A42F071
:1012A00020029A620120BFE7906810F4000F1BD162
:1012B000906840F4000090600A68102A01D0002075
:1012C000B2E70C4A12680C49A1FB0212920C02EB25
:1012D00082025200019202E0019A013A0192019ABF
:1012E000002AF9D100209FE700209DE702209EE719
:1012F000002401400000002083DE1B4330B583B092
:101300000023019303689A6812F0010F33D1044659
:101310009A6842F001029A60184B1B68184AA2FBB7
:1013200003239B0C019302E0019B013B0193019B72
:10133000002BF9D1FFF774FE054623689B6813F074
:10134000010F16D1FFF76CFE431B022BF5D9236862
:101350009B6813F0010FF0D1A36A43F01003A3625E
:10136000E36A43F00103E362002384F824300120A0
:1013700002E0002000E0002003B030BD00000020AB
:1013800083DE1B4390F82430012B68D010B504464F
:10139000012380F82430FFF7B1FF00285BD1A36A56
:1013A00023F4407323F0010343F48073A3622368A2
:1013B0002C4A934227D0A26A22F48012A2625A6871
:1013C00012F4806F05D0A26A22F4405242F4805297
:1013D000A262A26A12F4805F2BD0E26A22F00602B7
:1013E000E262002284F824206FF002021A6023686F
:1013F0009A6802F46022B2F5602F1DD09A6842F418
:1014000080129A602AE0A2F58062526812F4702F6E
:10141000D1D0A26A42F48012A262134A526812F436
:10142000806FD6D0A26A22F4405242F48052A26267
:10143000CFE70022E262D4E70A4A934204D09A68D6
:1014400042F4A0029A6009E0A2F58062526812F4A8
:10145000702FD3D1F3E7002384F8243010BD02208D
:10146000704700BF002801400024014038B50368E0
:101470009A6812F0010F01D1002038BD04469A6825
:1014800022F001029A60FFF7CBFD054623689B68B6
:1014900013F0010F13D0FFF7C3FD431B022BF5D947
:1014A00023689B6813F0010FF0D0A36A43F0100388
:1014B000A362E36A43F00103E3620120DDE7002059
:1014C000DBE7000000287BD070B50446836A002B60
:1014D0004DD02046FFF7CAFFA36A13F0100369D16D
:1014E000002867D1A26A22F4885222F0020242F058
:1014F0000202A2626268E1690A43217B42EA410278
:10150000A568B5F5807F02D0012D36D01D46267D19
:10151000012E35D02668716821F469412943716034
:101520002568AE68274931401143A960A168B1F52B
:10153000807F01D0012902D12369013B1B05256869
:10154000E96A21F470010B43EB62236899681E4B32
:101550000B409A4225D0A36A23F0120343F01003F4
:10156000A362E36A43F00103E362012027E0C36260
:1015700080F82430FFF7BAFAABE74FF48075C6E77E
:1015800031B9A169013945EA413141F40065C1E74A
:10159000A16A41F02001A162E16A41F00101E1622A
:1015A000B8E70023E362A36A23F0030343F00103D7
:1015B000A36204E0A36A43F01003A362012070BD9C
:1015C00001207047FDF7E1FFFE0E1FFF90F8243069
:1015D000012B13D010B50446012380F82430FFF707
:1015E00045FF38B9A36A23F4885323F0010343F07D
:1015F0000103A362002384F8243010BD0220704749
:10160000074AD36823F4E0631B041B0C000200F4B8
:10161000E060034343F0BF6343F40033D36070479B
:1016200000ED00E000B5194BDB68C3F30223C3F102
:10163000070CBCF1040F28BF4FF0040C03F1040E9B
:10164000BEF1060F18D9033B4FF0FF3E0EFA0CFC1B
:1016500021EA0C0199400EFA03F322EA030319432D
:1016600000280BDB0901C9B200F1604000F56140C0
:1016700080F800135DF804FB0023E5E700F00F009D
:101680000901C9B2024B1954F4E700BF00ED00E0B4
:1016900014ED00E0002807DB00F01F0240090123E1
:1016A0009340024A42F82030704700BF00E100E05A
:1016B0000138B0F1807F0BD24FF0E0235861054A2A
:1016C000F02182F823100020986107221A617047E8
:1016D0000120704700ED00E070B582B00024A44600
:1016E000A6E0804DAA4210D007D97F4DAA420CD067
:1016F00005F58035AA4208D013E0A5F58015AA4269
:1017000003D005F57025AA4207D18A68002A58D06F
:10171000012A51D04361082403E0A5F58015AA42AF
:10172000F3D0BEF1FF0F4ED80646BEF1FF0F4CD8E6
:101730004FEA8C0233680F25954023EA050304FA2B
:1017400002F2134333604B6813F0805F6ED0674B37
:101750009A6942F001029A619B6903F001030193C7
:10176000019B4FEA9C02951C614B53F825600CF0DD
:1017700003039D000F23AB4026EA03065D4B98420E
:1017800029D003F58063984200F08E8003F58063D2
:10179000984200F08B8003F58063984219D00423AF
:1017A0001AE0CC68BDE7CC680434BAE7CC680834EA
:1017B000B7E7CC680C34B4E703610824B1E7002430
:1017C000AFE70424ADE7061DAFE7ACF108029200D5
:1017D000B0E7032300E00023AB4033430232444D23
:1017E00045F822304B6813F4801F61D0424A936859
:1017F00043EA0E0393604B6813F4001F5ED03E4A29
:10180000D36843EA0E03D3604B6813F4003F5BD008
:10181000394A536843EA0E0353604B6813F4803F20
:1018200058D0354A136843EA0E0313600CF1010CDB
:101830000A6832FA0CF353D0012303FA0CF302EADC
:10184000030E33EA0202F1D14A68122A3FF649AF89
:10185000122A3FF666AF01A555F822F00B170008D3
:10186000A3170008AD170008BF17000823170008CA
:101870002317000823170008231700082317000860
:101880002317000823170008231700082317000850
:101890002317000823170008231700082317000840
:1018A000A7170008B3170008012395E7022393E761
:1018B000114A936823EA0E0393609CE70E4AD368AB
:1018C00023EA0E03D3609FE70B4A536823EA0E0313
:1018D0005360A2E7084A136823EA0E031360A5E7E2
:1018E00002B070BD00002210000031100010024054
:1018F00000000140000801400004014082B0084B94
:101900001B68084AA2FB03235B0A00FB03F3019355
:1019100000BF019B5A1E0192002BF9D102B0704703
:1019200000000020D34D6210002800F0F18170B556
:1019300082B00446036813F0010F2CD0994B5B680A
:1019400003F00C03042B1DD0964B5B6803F00C03D3
:10195000082B12D06368B3F5803F41D0002B55D1DE
:1019600003F1804303F504331A6822F480321A60CD
:101970001A6822F480221A6037E08A4B5B6813F4FD
:10198000803FE7D0874B1B6813F4003F03D06368A8
:10199000002B00F0BF81236813F0020F75D0814B3C
:1019A0005B6813F00C0F5FD07E4B5B6803F00C0399
:1019B000082B54D02369002B00F08A807A4B012237
:1019C0001A60FFF72DFB0546764B1B6813F0020FDC
:1019D00075D1FFF725FB401B0228F5D903209EE1B6
:1019E000704A136843F480331360636843B3FFF7AE
:1019F00017FB05466B4B1B6813F4003FCBD1FFF779
:101A00000FFB401B6428F5D9032088E1B3F5A02F14
:101A100009D0644B1A6822F480321A601A6822F4E2
:101A200080221A60E1E703F18043A3F53C331A6892
:101A300042F480221A601A6842F480321A60D4E7B5
:101A4000FFF7EEFA0546574B1B6813F4003FA2D090
:101A5000FFF7E6FA401B6428F5D903205FE1514BFC
:101A60005B6813F4803FA5D14E4B1B6813F0020F47
:101A700003D02369012B40F04F814A4A136823F0B9
:101A8000F803616943EAC1031360236813F0080F88
:101A900033D0A369002B5CD0434B0122C3F88024D0
:101AA000FFF7BEFA05463F4B5B6A13F0020F21D1E8
:101AB000FFF7B6FA401B0228F5D903202FE1394A77
:101AC000136823F0F803616943EAC1031360DCE79C
:101AD000354B00221A60FFF7A3FA0546314B1B680D
:101AE00013F0020FD1D0FFF79BFA401B0228F5D963
:101AF000032014E10120FFF701FF236813F0040F16
:101B000000F09680274BDB6913F0805F34D1254BC2
:101B1000DA6942F08052DA61DB6903F080530193A5
:101B2000019B0125214B1B6813F4807F26D0E368BD
:101B3000012B3DD0002B53D103F1804303F5043337
:101B40001A6A22F001021A621A6A22F004021A6268
:101B500033E0154B0022C3F88024FFF761FA0546F5
:101B6000104B5B6A13F0020FC7D0FFF759FA401B06
:101B70000228F5D90320D2E00025D3E70B4A1368E9
:101B800043F480731360FFF74BFA0646074B1B685C
:101B900013F4807FCBD1FFF743FA801B6428F5D97B
:101BA0000320BCE0001002400000424200700040F0
:101BB0005F4A136A43F001031362E36833B3FFF72C
:101BC0002FFA06465A4B1B6A13F0020F2FD1FFF76C
:101BD00027FA801B41F288339842F3D903209EE014
:101BE000052B09D0524B1A6A22F001021A621A6AB6
:101BF00022F004021A62E0E74D4B1A6A42F0040236
:101C00001A621A6A42F001021A62D6E7FFF708FA6E
:101C10000646474B1B6A13F0020F08D0FFF700FA85
:101C2000801B41F288339842F3D9032077E0E5B96D
:101C3000E369002B72D03E4A526802F00C02082A77
:101C400056D0022B17D03B4B00221A66FFF7E8F95B
:101C50000446374B1B6813F0007F47D0FFF7E0F9CD
:101C6000001B0228F5D9032059E0314AD36923F03B
:101C70008053D361DCE72F4B00221A66FFF7D0F9BF
:101C800005462B4B1B6813F0007F06D0FFF7C8F901
:101C9000401B0228F5D9032041E0236AB3F5803FB9
:101CA0001AD023494B6823F47413226A606A0243F2
:101CB00013434B601F4B01221A66FFF7B1F904462C
:101CC0001B4B1B6813F0007F0ED1FFF7A9F9001B17
:101CD0000228F5D9032022E0154A536823F4003383
:101CE000A1680B435360DCE7002018E0002016E0F9
:101CF000012B16D00E4B5B6803F48031226A9142AF
:101D000011D103F47013626A93420ED1002006E0F1
:101D100001207047012002E0012000E0002002B015
:101D200070BD0120FBE70120F9E70120F7E700BFC4
:101D300000100240000042420F4B5B6803F00C02AF
:101D4000082A01D00D487047C3F383420C49885CD0
:101D500013F4803F0BD0084B5B68C3F34043094A40
:101D6000D35C064A02FB00F0B0FBF3F07047064B71
:101D700003FB00F0704700BF0010024000127A0021
:101D8000382B0008482B000800093D00002800F00F
:101D9000A08070B50D460446524B1B6803F0070344
:101DA0008B420BD24F4A136823F007030B43136097
:101DB000136803F007038B4240F08D80236813F013
:101DC000020F17D013F0040F04D0474A536843F4AE
:101DD000E0635360236813F0080F04D0424A53684D
:101DE00043F460535360404A536823F0F003A16802
:101DF0000B435360236813F0010F31D06368012B4C
:101E000020D0022B25D0384A126812F0020F64D07D
:101E100035494A6822F0030213434B60FFF700F98B
:101E20000646314B5B6803F00C036268B3EB820F2C
:101E300016D0FFF7F5F8801B41F288339842F0D9AD
:101E4000032045E0284A126812F4003FE0D1012047
:101E50003EE0254A126812F0007FD9D1012037E018
:101E6000204B1B6803F00703AB420AD91D4A1368D5
:101E700023F007032B431360136803F00703AB42FF
:101E80002DD1236813F0040F06D0174A536823F4AA
:101E9000E063E1680B435360236813F0080F07D039
:101EA000114A536823F46053216943EAC103536024
:101EB000FFF742FF0C4B5B68C3F303130B4AD35C81
:101EC000D8400B4B18600B4B1868FFF765F80020E3
:101ED00070BD012070470120FAE70120F8E70120DA
:101EE000F6E700BF0020024000100240202B00084F
:101EF0000000002008000020014B1868704700BF58
:101F00000000002008B5FFF7F7FF044B5B68C3F340
:101F1000C223034AD35CD84008BD00BF0010024072
:101F2000302B000870B582B00446036813F0010F2F
:101F300036D03F4BDB6913F0805F49D13C4BDA6907
:101F400042F08052DA61DB6903F080530193019B18
:101F50000125384B1B6813F4807F3BD0344B1B6A40
:101F600013F4407313D0626802F440729A420ED0A8
:101F70002F4A136A23F440702F490126C1F84064A8
:101F80000026C1F84064106213F0010F36D1284AD0
:101F9000136A23F4407361680B431362002D3ED132
:101FA000236813F0020F06D0214A536823F44043FC
:101FB000A1680B435360236813F0100F34D01C4A00
:101FC000536823F48003E1680B43536000202CE046
:101FD0000025BEE7174A136843F480731360FFF7C8
:101FE0001FF80646134B1B6813F4807FB6D1FFF72A
:101FF00017F8801B6428F5D9032016E0FFF710F8C6
:1020000006460B4B1B6A13F0020FC0D1FFF708F80E
:10201000801B41F288339842F3D9032005E0D3694D
:1020200023F08053D361BBE7002002B070BD00BF36
:1020300000100240007000400000424208B5022833
:102040004ED0102803D0012828D0002008BD2B4BEB
:102050005A68186810F08070F8D0C2F3834328499A
:10206000C85C12F4803F15D0244B5B68C3F3404337
:10207000244AD25C244BB3FBF2F303FB00F01F4B6A
:102080005B6813F4800FE1D14000204BA3FB0030CC
:102090004008DBE71E4B03FB00F0F0E7174B1B6A21
:1020A00040F202321A40B2F5817F24D003F440732B
:1020B000B3F5007F04D0B3F5407F09D00020C5E719
:1020C0000E4A526A12F0020FF5D049F64040BDE7C1
:1020D0000A4B186810F40030B8D04FF22440B5E72E
:1020E000FFF710FF054B5B68C3F3813301335B00DF
:1020F000B0FBF3F0AAE74FF40040A7E7001002405E
:102100004C2B00085C2B000800127A00ABAAAAAA8C
:1021100000093D0070B4036A026A22F00102026203
:102120004668826922F073020C6844EA020523F0D3
:1021300002028B6813430D4CA04209D00B4CA04205
:102140000DD0466085614A684263036270BC704787
:1021500023F00803CA68134323F00403EEE726F4D0
:1021600040764A6932438E691643EAE7002C014003
:1021700030B4036A026A22F4807202624568C2695E
:1021800022F073020C68224323F400738C6843EA44
:1021900004230F4CA04209D00D4CA0420ED0456044
:1021A000C2614A68C263036230BC704723F40063B3
:1021B000CC6843EA042323F48063EDE725F440551B
:1021C0004C6945EA04158C6945EA0415E7E700BF48
:1021D000002C014030B4036A026A22F48052026289
:1021E0004468C26922F4E6420D6842EA052223F4FB
:1021F00000538D6843EA0533074DA84206D044607A
:10220000C2614A680264036230BC704724F48044AF
:102210004D6944EA8514F2E7002C014010B4036ACA
:10222000046A24F001040462846924F0F00C4CEA8E
:10223000021223F00A030B438261036210BC704751
:1022400010B4036A046A24F010040462846924F45C
:10225000704C4CEA023223F0A00343EA011382617E
:10226000036210BC7047836823F070030B4343F094
:10227000070383607047000090F83D30DBB2012B0C
:1022800027D1022380F83D300268D36843F0010370
:10229000D3600368114A934210D0B3F1804F0DD040
:1022A000A2F59432934209D002F58062934205D0A0
:1022B0001A6842F001021A60002070479A6802F022
:1022C0000702062A07D01A6842F001021A600020AD
:1022D0007047012070470020704700BF002C01406C
:1022E000704770477047704770B504460368DE68F2
:1022F0001D6915F0020F10D016F0020F0DD06FF00F
:1023000002021A610123037703689B6913F0030F2C
:102310005ED0FFF7E6FF0023237715F0040F12D0FD
:1023200016F0040F0FD023686FF004021A61022325
:10233000237723689B6913F4407F4FD02046FFF733
:10234000D0FF0023237715F0080F12D016F0080FE6
:102350000FD023686FF008021A61042323772368E3
:10236000DB6913F0030F40D02046FFF7BAFF0023CC
:10237000237715F0100F12D016F0100F0FD023682E
:102380006FF010021A61082323772368DB6913F4C6
:10239000407F31D02046FFF7A4FF0023237715F0BC
:1023A000010F02D016F0010F2DD115F0800F02D0D1
:1023B00016F0800F2FD115F0400F02D016F0400F0D
:1023C00031D115F0200F02D016F0200F33D170BD9F
:1023D000FFF786FF2046FFF785FF9CE72046FFF7C3
:1023E0007FFF2046FFF77EFFABE72046FFF778FF31
:1023F0002046FFF777FFBAE72046FFF771FF204638
:10240000FFF770FFC9E723686FF001021A612046E9
:10241000FEF7CAFBC9E723686FF080021A61204605
:1024200000F08BFAC7E723686FF040021A6120467C
:10243000FFF759FFC5E723686FF020021A612046B5
:1024400000F07AFAC3E7000003681F4A90420AD0FE
:10245000B0F1804F07D0A2F59432904203D002F53C
:102460008062904203D123F070034A681343164AF6
:1024700090420AD0B0F1804F07D0A2F5943290423A
:1024800003D002F58062904203D123F44073CA68FE
:10249000134323F080034A69134303608B68C362CC
:1024A0000B688362084B98420AD001234361036999
:1024B00013F0010F03D0036923F001030361704798
:1024C0000B690363F1E700BF002C014040B310B576
:1024D000044690F83D30F3B1022384F83D302146A4
:1024E00051F8040BFFF7B0FF012384F8463084F85D
:1024F0003E3084F83F3084F8403084F8413084F82E
:10250000423084F8433084F8443084F8453084F80D
:102510003D30002010BD80F83C30FEF779FCDBE751
:102520000120704740B310B5044690F83D30F3B138
:10253000022384F83D30214651F8040BFFF784FF55
:10254000012384F8463084F83E3084F83F3084F824
:10255000403084F8413084F8423084F8433084F8C5
:10256000443084F8453084F83D30002010BD80F8B8
:102570003C30FEF76BFCDBE70120704730B4036AA8
:10258000026A22F0100202624468826922F4E64282
:102590000D6842EA052223F020038D6843EA051303
:1025A0000E4DA84209D00D4DA8420ED04460826164
:1025B0004A688263036230BC704723F08003CD68B1
:1025C00043EA051323F04003EDE724F440644D692A
:1025D00044EA85048D6944EA8504E7E7002C01405C
:1025E00038B590F83C30012B66D004460D460123E7
:1025F00080F83C300C2A5AD8DFE802F007595959C4
:102600001B5959593059595944000068FFF782FD48
:102610002268936943F0080393612268936923F069
:10262000040393612268936929690B439361002035
:102630003EE00068FFF7A2FF2268936943F400635D
:1026400093612268936923F480639361226893699C
:10265000296943EA01239361002029E00068FFF71C
:1026600087FD2268D36943F00803D3612268D369E8
:1026700023F00403D3612268D36929690B43D36132
:10268000002015E00068FFF7A5FD2268D36943F438
:102690000063D3612268D36923F48063D361226825
:1026A000D369296943EA0123D361002000E00120B6
:1026B000002384F83C3038BD0220FCE710B4846865
:1026C00024F47F4C42EA03220A4342EA0C0282606D
:1026D00010BC704790F83C30012B78D010B5044600
:1026E000012380F83C30022380F83D300268936873
:1026F00023F47F4323F0770393600B68602B4CD067
:1027000029D8402B54D00CD9502B22D1CA68496803
:102710000068FFF783FD50212068FFF7A4FD00202B
:1027200005E0202B0DD009D9302B0AD00120012340
:1027300084F83D30002384F83C3010BD0BB1102BE1
:1027400005D119462068FFF78EFD0020EFE7012034
:10275000EDE70120EBE7B3F5805F34D0B3F5005F20
:102760000CD1CB684A6889680068FFF7A7FF226828
:10277000936843F4804393600020D8E7702B24D102
:10278000CB684A6889680068FFF798FF22689368F9
:1027900043F0770393600020C9E7CA68496800687E
:1027A000FFF74EFD60212068FFF75DFD0020BEE7CA
:1027B000CA6849680068FFF731FD40212068FFF7CB
:1027C00052FD0020B3E70020B1E70120AFE702206F
:1027D000704701F01F01012303FA01FC036A23EA99
:1027E0000C030362036A02FA01F10B4303627047B0
:1027F00010B50446084651BB94F83E30DBB2013BAD
:1028000018BF0123002B5BD1002839D1022384F8A3
:102810003E30012201462068FFF7DBFF23682A4A89
:1028200093423DD02368284A93423ED0B3F1804F73
:102830003BD0A2F59432934237D002F580629342A6
:1028400033D01A6842F001021A60002039E00429EE
:1028500008D008290DD094F84130DBB2013B18BFF5
:102860000123CFE794F83F30DBB2013B18BF0123CF
:10287000C8E794F84030DBB2013B18BF0123C1E741
:10288000042805D0082807D0022384F84130C0E787
:10289000022384F83F30BCE7022384F84030B8E7D5
:1028A0005A6C42F400425A64BCE79A6802F007028C
:1028B000062A07D01A6842F001021A60002000E0E0
:1028C000012010BD0020FCE7002C014090F83C30B6
:1028D000012B2CD010B4012380F83C30022380F867
:1028E0003D3003685A689C6822F0700C0A6842EA1E
:1028F0000C025A6003680F4A93420AD0B3F1804F2A
:1029000007D0A2F59432934203D002F5806293423D
:1029100004D124F080044A6814439C60012380F8A9
:102920003D30002380F83C30184610BC7047022030
:10293000704700BF002C01407047704770B50D4EC6
:102940000D4D761BB61006D0002455F8043B01341B
:102950009847A642F9D1094E094D00F0D5F8761BEB
:10296000B61006D0002455F8043B01349847A6421F
:10297000F9D170BD642B0008642B00086C2B000893
:10298000642B0008830730B548D0541E002A3FD07E
:102990000346CAB201E0013C3AD303F8012B9D077C
:1029A000F9D1032C2DD9CDB245EA05250F2C45EAE6
:1029B000054536D9A4F1100222F00F0C03F1200EC8
:1029C000E6444FEA121C03F1100242E9045542E9C1
:1029D000025510327245F8D10CF1010214F00C0FBF
:1029E00003EB021204F00F0C13D0ACF1040323F03C
:1029F00003030433134442F8045B9342FBD10CF00D
:102A000003042CB1CAB21C4403F8012B9C42FBD135
:102A100030BD64461346002CF4D1F9E70346144652
:102A2000BFE71A46A446E0E7024B13B1024800F0A4
:102A300005B8704700000000492A0008002301463D
:102A40001A46184600F01AB838B5084B084D5B1BFB
:102A50009C1007D0043B1D44013C55F804399847AD
:102A6000002CF9D1BDE8384000F054B8702B0008B4
:102A70006C2B0008704700BF704700BF2DE9F0477E
:102A8000DFF87CA00646DAF8000098460F4691462B
:102A9000FFF7F0FF1B4B1B68D3F8484124B3656870
:102AA0001F2D26DC5EB96B1C0235DAF8000063606E
:102AB00044F82570FFF7E0FF0020BDE8F087012310
:102AC00004EB8501C1F88890D4F88821AB401A4303
:102AD000022EC4F88821C1F80881E4D1D4F88C21F1
:102AE0001343C4F88C31DEE703F5A674C3F84841FC
:102AF000D5E7DAF80000FFF7BFFF4FF0FF30DCE763
:102B000038040020602B0008F8B500BFF8BC08BCF2
:102B10009E467047F8B500BFF8BC08BC9E4670479B
:102B2000000000000000000001020304060708097D
:102B3000000000000102030402030405060708095F
:102B40000A0B0C0D0E0F1010010200000203040509
:102B5000060708090A0B0C0D0E0F101001020000E9
:042B60001000002041
:082B6400292A000835010008D0
:042B6C00110100084B
:102B700000127A00010000001000000000000000B8
:102B800000000000FC02002064030020CC030020B1
:102B90000000000000000000000000000000000035
:102BA0000000000000000000000000000000000025
:102BB0000000000000000000000000000000000015
:102BC0000000000000000000000000000000000005
:102BD00000000000000000000000000000000000F5
:102BE00000000000000000000000000000000000E5
:102BF00000000000000000000000000000000000D5
:102C000000000000000000000000000000000000C4
:102C100000000000000000000000000000000000B4
:102C200000000000000000000100000000000000A3
:102C30000E33CDAB34126DE6ECDE05000B00000068
:102C40000000000000000000000000000000000084
:102C50000000000000000000000000000000000074
:102C60000000000000000000000000000000000064
:102C70000000000000000000000000000000000054
:0C2FA000000000000000000028050020D8
:0400000508000F4D93
:00000001FF
